:020000040800F2
:10000000787600205502000807480008DF3A00080B
:100010000548000849130008399500080000000051
:100020000000000000000000000000009D0100082A
:10003000491F000800000000F10100085D5F000892
:100040006F0200086F0200086F0200086F020008CC
:100050006F0200086F0200086F0200086F020008BC
:100060006F0200086F0200086F0200086F020008AC
:100070006F0200086F0200086F0200086F0200089C
:100080006F0200086F0200086F0200086F0200088C
:10009000191500086F0200086F0200086F020008BF
:1000A0006F0200086F0200086F0200086F0200086C
:1000B0004163000851630008656300086F0200088F
:1000C0006F0200086F0200086F0200086F0200084C
:1000D0006F020008256F0008657000081D73000896
:1000E0006F0200086F0200086F0200088D630008AD
:1000F000856800086F020008A16300086F0200080D
:100100006F0200086F020008796300086F020008A0
:100110006F020008356E00086F0200086F020008C9
:100120006F0200086F0200086F0200086F020008EB
:100130006F0200086F0200086F0200086F020008DB
:100140006F0200086F0200086F020008754E000879
:100150006F0200086F0200086F0200086F020008BB
:100160006F0200086F0200086F0200086F020008AB
:100170006F0200086F0200086F0200086F0200089B
:100180006F0200086F020008DFF80CD000F046FC98
:100190000048004701CB0008787600202A4B1968F8
:1001A0000868B0E8F04F80F30988BFF36F8F4FF015
:1001B000000080F3118870470000000006480068C6
:1001C000006880F3088862B661B6BFF34F8FBFF353
:1001D0006F8F00DF00BF00BF08ED00E0DFF80C000C
:1001E000016841F470010160704700BF88ED00E0D4
:1001F000EFF30980BFF36F8F134B1A681EF0100FD7
:1002000008BF20ED108A20E9F04F106008B44FF0CD
:10021000500080F31188BFF34F8FBFF36F8F0FF043
:1002200033FE4FF0000080F3118808BC196808689D
:10023000B0E8F04F1EF0100F08BFB0EC108A80F34A
:100240000988BFF36F8F70478C010020EFF30580A2
:10025000704700000648804706480047FEE7FEE773
:10026000FEE7FEE7FEE7FEE7FEE7FEE7FEE7FEE766
:10027000715F00088901000840EA01039B0703D071
:1002800009E008C9121F08C0042AFAD203E011F8D5
:10029000013B00F8013B521EF9D27047D2B201E097
:1002A00000F8012B491EFBD270470022F6E710B57B
:1002B00013460A4604461946FFF7F0FF204610BDD4
:1002C000421C10F8011B0029FBD1801A704710B5A1
:1002D000002200E0521C835C8C5CA34201D1002B05
:1002E000F8D1D8B2E1B2401A10BD2DE9FE4F8046D8
:1002F00081EA0300C00F0C46009021F0004123F07A
:100300000045B8EB0200A94105D24046214690467F
:100310001C460B46024623F00040104347D0270DF1
:10032000C7F30A00C3F30A510290401A0190402813
:100330006BDAC3F3130040F4801B0098924620B19F
:100340000023D2EB030A63EB0B0B01985946C0F173
:100350004002504600F004FA06460D465046594603
:10036000019A00F01CFA10EB08006141002487EAB2
:10037000115284EAE7731A4340D0009A62B3019A9B
:10038000012A4FEA075215DC001B61EB02014FF016
:10039000004202EA0752CDE90042001C41F58011FB
:1003A00032462B4600F053FA03B0BDE8F08F4046CA
:1003B0002146F9E7001B61EB0201001C41F58013A7
:1003C00000185B412018A2F5001747EB030140EA33
:1003D000D570B6196D4111E06D084FEA360645EA51
:1003E000C0754FEA0752001B61EB0201001C41F58A
:1003F000801149084FEA30000019514132462B461E
:1004000003B0BDE8F04F00F013BA0098012240009D
:100410000023D0EB020263EBE073009821464FEA21
:10042000E074B8EB000061EB0401E9E783F00043FE
:100430005BE781F0004158E72DE9FE4F81EA0304B4
:1004400004F0004421F0004100944FF0000B23F031
:10045000004350EA01045ED052EA03045BD0C3F3C8
:100460000A54C1F30A552C44A4F2F3340194A0FBBE
:100470000254C1F3130141F48011C3F3130343F495
:10048000801301FB024400FB034E840A970A44EAEE
:10049000815447EA8357A4FB076802958D0A05FB40
:1004A00007854FEA932C04FB0C542705029D4FEA65
:1004B000065847EA1637B5EB08056EEB070C870EB2
:1004C000920E47EA811742EA8312A7FB0201B6EBBC
:1004D0000B0164EB00042B0D43EA0C335E1844EB74
:1004E0001C50DA465146E7FB0201C5F313044FEAFC
:1004F0000B3343EA14534FEA0432019C43EA0603E8
:10050000A4F10C040294009CCDE900B400F09FF922
:1005100003B0BDE8F08F00200146F9E72DE9F04D6A
:1005200081EA030404F0004B21F0004514464FF02B
:10053000000A23F0004150EA050220D054EA0102EB
:100540001DD0C5F30A570246C5F31303C1F31300C8
:10055000C1F30A5640F4801543F48013A7EB060854
:10056000101BD64608F2FD3873EB050002D308F1E4
:10057000010801E092185B41B8F1000F03DA002096
:100580000146BDE8F08D00204FF4801106468446F8
:100590000EE0171B73EB050705D3121B63EB050376
:1005A00006434CEA010C49084FEA300092185B41BF
:1005B00050EA0107EDD152EA030012D082EA0400AA
:1005C00083EA0501084305D0101BAB4106D2012286
:1005D000002306E000224FF0004302E06FF001022A
:1005E00053101AEB06004CEB085110EB0A0041EBDC
:1005F0000B01BDE8F04D00F01BB90EB5C10F80EA4C
:10060000E0700844CA07002140F233438DE80E0031
:100610000A460B4600F01BF903B000BD0EB540F2D0
:10062000334102910021CDE900110A460B4600F04A
:100630000EF903B000BD70B5C1F30A5201F00045D8
:100640000024C1F3130140F2FF3341F480119A42B8
:1006500001DA002070BD40F233439A42A2F23342E5
:1006600003DC524200F08BF800E090402C43F1D0C4
:10067000404270BD00F0004230F000400AD0C10D91
:1006800001F56071C0F3160042EA0151C20840074B
:100690001143704700200146704701F0004330B419
:1006A00021F0004150EA010206D00A0DA2F5607265
:1006B000C1F31301002A02DC30BC00207047440F54
:1006C00044EAC104C100E01830BC00EBC25000F0A5
:1006D00078B830B50B46014600202022012409E0FD
:1006E00021FA02F59D4205D303FA02F5491B04FAEB
:1006F00002F52844151EA2F10102F1DC30BD2DE9FE
:10070000F05F0546002092469B4688460646814695
:1007100040241BE0284641464746224600F02FF879
:1007200053465A46C01A914110D3114618462246E4
:1007300000F016F82D1A67EB01084F4622460120FB
:10074000002100F00DF817EB00094E41201EA4F126
:100750000104DFDC484631462A464346BDE8F09FA7
:10076000202A04DB203A00FA02F100207047914071
:10077000C2F1200320FA03F3194390407047202A66
:1007800004DB203A21FA02F00021704721FA02F33B
:10079000D040C2F120029140084319467047202AF8
:1007A00006DBCB17203A41FA02F043EAE07306E099
:1007B00041FA02F3D040C2F12002914008431946A9
:1007C00070470029A8BF7047401C490008BF20F0AF
:1007D0000100704710B4B0FA80FC00FA0CF050EA47
:1007E000010404BF10BC704749B1CCF1200421FAC8
:1007F00004F411FA0CF118BF012121430843A3EBC3
:100800000C01CB1D4FEA00614FEA102042BF0020CF
:1008100010BC704700EBC35010440029A4BF10BCAB
:100820007047401C490008BF20F0010010BC704711
:1008300010B5141E73F1000408DA401C41F10001E8
:1008400092185B411A4301D120F0010010BD2DE93F
:10085000F04D92469B4611B1B1FA81F202E0B0FA36
:1008600080F220329046FFF77BFF04460F4640EAB5
:100870000A0041EA0B0153465A46084313D0114679
:1008800053EA010019D0C8F140025046FFF777FF44
:1008900005460E46504659464246FFF761FF08435B
:1008A00005D0012004E020463946BDE8F08D002047
:1008B000054346EAE0762C4337430A986305E40A89
:1008C000A0EB08000022FD0A44EA47540A3002D592
:1008D00000200146E9E7010510196941DDE90845F5
:1008E00000196941BDE8F04DA2E770B521F0004361
:1008F00003430CD0C1F30A550024D5EB040564EB87
:100900000403D617AD1AB34102DB0020014670BDC7
:10091000201841EB025170BD2DE9F04D00231A461D
:100920001B1A8A4103DB00200146BDE8F08DC1F3AC
:100930000A52C1F3130141F480154FF0000BD107A7
:1009400002D100186D41521E0027044640F2FF11EB
:10095000384601EB620A3E468046024600204FF4CC
:100960008011FFF70CFFC2197141BB1846EB010063
:10097000B4EB030C75EB000C04D3E41A65EB000533
:1009800017460E46241908F101006D4180463428AF
:10099000E3DDF91946EB0600091BA84103D24FF02D
:1009A000FF32134601E0002213461BEB070046EB23
:1009B0000A51BDE8F04DFFF73BBFC1F30A52C1F346
:1009C000130140F2FF3341F480119A4202DA002011
:1009D0000146704740F233439A42A2F2334202DCAE
:1009E0005242FFF7CCBEFFF7BBBE000030B5041E7D
:1009F00071F1000404DB4FF00044404264EB01015C
:100A0000141E73F1000405DB1C464FF000435242F4
:100A100063EB0403994208BF904230BD064C074D7A
:100A200006E0E06840F0010394E8070098471034BE
:100A3000AC42F6D3FFF7ACFB282B0108482B01088A
:100A400070B58C1810F8015B15F0070301D110F890
:100A5000013B2A1106D110F8012B03E010F8016BBD
:100A600001F8016B5B1EF9D12B0705D40023521E40
:100A70000DD401F8013BFAE710F8013BCB1A921CA8
:100A800003E013F8015B01F8015B521EF9D5A142A6
:100A9000D8D3002070BD0029816802D041F0010147
:100AA00001E021F00101816070470000084B10B5A2
:100AB000D3F8042307490A40D0E900142143D0E9C0
:100AC0000240044321431143C3F8041310BD000046
:100AD00000200140E030FCFFC06C80B2704702464D
:100AE000002012680A4200D00120704730B54268E9
:100AF0000F4B0C791A400B6842EA042213434360FF
:100B000082680C4B4D791A40D1E9034323438C682A
:100B100044EA4504234313438360C26A097D22F4F7
:100B20007002491EC9B242EA0151C16230BD0000E3
:100B3000FFFEFFFCFDF7FFC070B5072609290AD9A3
:100B4000C568A1F10A0404EB4404A640B543A340E0
:100B50001D43C56007E0056901EB4104A640B543AC
:100B6000A3401D4305611F23072A09D2446B521E6F
:100B700002EB820293409C4391400C43446370BD5E
:100B80000D2A09D2046BD21F02EB820293409C43D0
:100B900091400C43046370BDC46A0D3A02EB8202BB
:100BA00093409C4391400C43C46270BD816841F006
:100BB0008041816070470000F8B53A4890ED000A26
:100BC0000FF0A0F903463848DFED380A90ED000A2F
:100BD00020EE200ABDEEC00A10EE101A002900DA3D
:100BE0004942334890ED000A20EE200ABDEEC00ACB
:100BF00010EE102A002A00DA52422E48C47814B3AC
:100C000000262D4CC6700025207801281DD02B4CC5
:100C1000C6B3B4F91C30B4F91A20B4F9181028A0DE
:100C200009F024F92A4C207800283AD02948007885
:100C300048B32948C178009183784278017827A089
:100C400009F014F92CE00126DBE729480068009040
:100C5000284890ED000A2848BDEEC00A10EE103A70
:100C600090ED000A2548BDEEC00A10EE102A90ED66
:100C7000000A23A0BDEEC00A10EE101A09F0F6F823
:100C80002570CFE700E008E0B4F91C000090D2B274
:100C9000C9B21FA009F0EAF8C4E721A009F0E6F8FC
:100CA0002570F8BD18000020CC5C00200000C84270
:100CB000E05C0020A402002051020020E05E002041
:100CC0007B4225643A25643A25647D2400000000B7
:100CD000C1000020C0000020D80000207B23495024
:100CE0003A25642E25642E25642E25647D2400007B
:100CF000680200200C0200200802002004020020EC
:100D00007B4325643A25643A25643A25647D2400B2
:100D10007B4125643A25643A25643A25647D2400A4
:100D20007B2349503A756E6B6E6F772E2E7D2400B3
:100D30002DE9F0413B4E0025044696F806C024A359
:100D40002FA2BCF1000F0BD0304600274079411C88
:100D5000C9B2BCF1010F16D0BCF1020F34D125E0AD
:100D600030480221432C007902D0442C05D02BE0DE
:100D70002B2829D10120B07102E02B2824D1B17198
:100D80000125717120E01A5CA24209D00D381028AB
:100D900008D8A4F13000092802D93138192801D81F
:100DA000012500E0B7717171184607E0105CA042A0
:100DB00001D1012500E0B77171711046FFF780FA8B
:100DC0007179884200D1B77134712846BDE8F0814D
:100DD0002B434F4E4E454354494E473C3C58583A9E
:100DE00058583A58583A58583A58583A58580D0A94
:100DF0002B434F4E4E45435445440D0A000000001E
:100E00002B444953433A535543434553530D0A2BFF
:100E100052454144590D0A2B5041495241424C45DB
:100E20000D0A0000C00000202DE9F041494E0025C8
:100E3000044696F809E036A33DA241A1BEF1000F99
:100E400010D03046002790F808C0BEF1010F0CF119
:100E50000100C0B225D0BEF1020F38D0BEF1030FA1
:100E600052D141E03B480221432CC07906D04F2C9F
:100E70000CD0442C0ED0432C02D045E02B2803D0BC
:100E8000432841D001253FE0012006E043283BD123
:100E9000717203E02B2837D1032070720125317263
:100EA00032E013F80C10A1420BD0ACF10D0CBCF1E8
:100EB000100F08D8A4F13001092902D911391929D4
:100EC00001D8012500E077723072184608E012F868
:100ED0000C10A14201D1012500E07772307210465A
:100EE000FFF7EEF9317A0CE011F80C20A24201D1A3
:100EF000012500E0777230720846FFF7E1F9317A98
:100F0000401C884200D17772F4712846BDE8F08118
:100F10002B434F4E4E454354494E473C3C58583A5C
:100F200058583A58583A58583A58583A58580D0A52
:100F3000434F4E4E45435445440D0D0A00000000FA
:100F40002B444953433A535543434553530D0D0ADC
:100F500000000000C000002030B58DB0012102204B
:100F600004F096FB01210D02284604F0B5FB032096
:100F700002218DF82C000A9100248DF82F400AA937
:100F8000134801F0FDFC0121284604F0B1FB0021CB
:100F9000284604F0ADFB069468020994CDE90704E5
:100FA00006A8FFF783FD8DF8044000948DF80540F6
:100FB000029404940120074C8DF8140069462046E1
:100FC000FFF794FD01212046FFF765FD0DB030BD10
:100FD000000402400020014070B58CB001210220C5
:100FE00004F056FB01214E02304604F075FB03204D
:100FF0008DF82C00012500240A958DF82F400AA9B0
:10100000134801F0BDFC0121304604F071FB0021C2
:10101000304604F06DFB069468040994CDE907049A
:1010200006A8FFF743FD8DF8044000948DF80540B5
:1010300002940494074C8DF8145069462046FFF73B
:1010400055FD01212046FFF726FD0CB070BD0000C4
:1010500000040240002101402DED028B82B00BF014
:101060002BFBDFF870A2DFF870B2DFF870929FED13
:101070009C8A9C4FDFF87082002401900A2101A80D
:101080000EF030FD994940F6B8324868904201DAD6
:10109000401C486001F02EFE03F0BEF9944D287804
:1010A000012808D1934E307858B92C7001F0DEFB3E
:1010B0002878012805D09048007870B301F032FDFF
:1010C00055E03078012812D18C490878401CC0B214
:1010D000087064280BD9652008702C70884889F83E
:1010E00000408AED008A80ED008A8BED008A854EF3
:1010F0003078012899F8000010D040B134709BED91
:10110000001AF0EE480A9AED000A00F01FFF30784E
:1011100099F8001008430CD029E011E00028EDD127
:101120007948F0EE480A90ED001A784890ED000AF0
:10113000EBE7B0EE480AB0EE401AF0EE400A14E0D9
:101140007348007810B104F05BFB10E07148007840
:1011500010B104F0B5F80AE06F4890ED001A6F483E
:10116000D0ED000A6E4890ED000A00F0EFFE6D48E9
:1011700090ED000ABDEEC00A10EE100A05F032FE36
:1011800070B1287830B16848D0F80C0210B16748C7
:10119000007828B100231A461946184600948BE0BF
:1011A000634DD5ED020A95ED000A02F0C1FE00EE96
:1011B000100A604EB8EEC00A85ED010AD6ED020AAB
:1011C00096ED000A02F022FF00EE100AB8EEC00A07
:1011D00086ED010AD7ED020A97ED000A02F084FFBE
:1011E00000EE100A4346B8EEC00A87ED010AD8EDBA
:1011F000020A98ED000A02F0F1FF00EE100A44F234
:101200003C10B8EEC00A83ED010A03F03FF90AF082
:1012100077FF49480078082850D2DFE800F004182A
:10122000325804580404009498ED010ABDEEC00A37
:1012300010EE103A97ED010AB1EE400ABDEEC00A79
:1012400010EE102A96ED010AB1EE400A2AE0009451
:1012500098ED010ABDEEC00A10EE103A97ED010AB2
:10126000B1EE400ABDEEC00A10EE102A96ED010A5A
:10127000BDEEC00A10EE101A95ED010AB1EE400A5B
:1012800016E02E480068009098ED010ABDEEC00AF5
:1012900010EE103A97ED010ABDEEC00A10EE102ACA
:1012A00096ED010ABDEEC00A10EE101A95ED010A86
:1012B000BDEEC00A10EE100A04F00CFD204801F04B
:1012C00027FB01287FF4DAAE1E480460D6E60094BE
:1012D000DAE700001C010020240100201901002091
:1012E00000000000F45C0020085D00201C5D002070
:1012F000050100201C020020110200201D02002018
:1013000020010020040100203001002028010020DD
:1013100012020020100200203402002030020020BF
:101320002C02002018000020008041420002002012
:10133000CC5C0020E05C002001020020280200209C
:10134000C2000020AC020020FEE700001CB5012115
:10135000084604F09DF94FF48070009001208DF84C
:10136000040000218DF8061003218DF805108DF87A
:1013700007006946014801F003FB1CBD0000024064
:101380002DE9FE4F0024D8B3D1B3CAB3C3B3401E76
:10139000491EC7B2CEB2521E5B1E02F0FF099DB2BB
:1013A0000121082004F074F90121480604F088F9AD
:1013B00002218DF804104FF0030B4FF000088DF858
:1013C00006808DF805B04FF0010ACDF800B08DF819
:1013D00007A069464D4801F0D3FA092200214B4885
:1013E00001F00AFB09220121484801F005FB4848A9
:1013F000C0F80080016841F001010160021D09E0B0
:10140000FFE70120BDE8FE8F641CA4B2642C01D963
:101410000220F7E71168C907F6D03D48016801606E
:101420000168016001680160016841F0100101601C
:101430000168016001680160354943461C31C1F80B
:101440000080D1F80080DDF830C048EA8C7CC1F81B
:1014500000C0D1F800C04CEA07670F600F6847EA88
:1014600006560E600F6847EA09460E600E682E4366
:101470000E60016821F0010101604FF6F07005E097
:10148000641CA4B2844201D90320BBE71168C907D8
:10149000F6D12048016841F0010101601D491C316D
:1014A0000A6822F001020A601A4A0C32146844F0F9
:1014B00001041460021D14681460164A1432146882
:1014C0001460144A40321360121D13600A6842F01F
:1014D00001020A60016803600D481430016841F0A0
:1014E0000201016014208DF808008DF809A08DF824
:1014F0000AB08DF80BA002A803F086F901220221A0
:10150000034800F051FA00207CE70000000C024084
:101510000064004000660040F0B589B002AC07A846
:10152000CDE9000406AB05AA04A9002000F034F9B7
:101530007A480499012281420ED100210846235C99
:10154000401C1944C0B2C9B20828F8D3082901D1F7
:101550007348027009B0F0BD00209FED721AA1F52A
:101560008073813B0CD0B1F5C17FF3D16E49087017
:101570006E486F4902786F48F2B39FED6F0A51E0F1
:101580006E490A706E4908706E4908706E4908709D
:101590006E4908706E4908706E4908709DF8090020
:1015A0009DF8081000EB012000B200EE100A6A4816
:1015B000F8EEC00A80EE810A80ED000A9DF80B006B
:1015C0009DF80A1000EB012000B200EE900A63487B
:1015D000F8EEE00AC0EE811AC0ED001A9DF80D0089
:1015E0009DF80C1000EB012000B200EE900AF8EE1E
:1015F000E01AC1EE810A00E012E05949594C09781D
:10160000022908D000EE100AB8EEC00AC0EE010AA6
:10161000C4ED000A9EE708F01DF884ED000A99E782
:101620009FED510A514B81ED000A80ED000A9DF8B3
:1016300009009DF808104E4C00EB012000B200EEAE
:10164000100A4C4D4D4AB8EEC00A4D4FDFF834C178
:10165000C0EE010AC3ED000A9DF80B009DF80A10C8
:1016600000EB012000B200EE100AB8EEC00AC0EE96
:10167000010AC4ED000A9DF80D009DF80C1000EB66
:10168000012000B200EE100A3B49B8EEC00AC0EEDD
:10169000010A9FED3F0AC5ED000A9DF80E0000F01B
:1016A00001060E70C0F340111170C0F300123A70C1
:1016B000C0F3C0078CF80070DFF8CCC0C0F3800026
:1016C00011448CF80000394408183049087005D1DD
:1016D00085ED000A84ED000A83ED000A2EB185ED48
:1016E000000A84ED000A83ED000A9DF80F002949E5
:1016F000802809D9C0F58070A0EB0010400000EEF2
:10170000100AB8EEC00A06E0C0EB0010400000EE80
:10171000100AB8EE400A81ED000A1BE77856341231
:101720001C02002000007A441D0200200501002058
:10173000080200200C0200200000164413020020C2
:101740001002002012020020110200204C02002092
:101750004D020020A00200202C02002030020020B8
:101760000102002034020020000096431C010020EA
:101770002001002024010020180100203401002055
:10178000350100203601002037010020190100201A
:101790000000000008010020F0B5224CDDE90575CD
:1017A00004EB0014D4F8B06516F004061670D4F8F3
:1017B000B02532D0D2080A60D4F8B01501F0020189
:1017C0001970D4F8B41501F00F013970D4F8B815B8
:1017D0002970D4F8B815090A6970D4F8B815090C3D
:1017E000A970D4F8B815090EE970D4F8BC152971A0
:1017F000D4F8BC15090A6971D4F8BC15090CA97193
:10180000D4F8BC15090EE97148B1012804D1064885
:10181000016841F020010160F0BD520DCBE70248A4
:10182000001FF5E7006000401064004038B5002458
:10183000009108232246012100F02EF8054640F6CB
:10184000FF7301E0641CA4B2284600F07BF807286F
:1018500001D09C42F6D39C4201D3012038BD002028
:1018600038BD38B50024009108232246214600F0F7
:1018700013F8054640F6FF7301E0641CA4B2284645
:1018800000F060F8072801D09C42F6D39C4201D3B7
:10189000012038BD002038BDF0B506462748059D1B
:1018A0000468640101D5002008E00468240101D522
:1018B000012003E00068C0003CD50220204C002736
:1018C00004EB0014C4F8807599B3F600D4F8807561
:1018D0003743C4F88075D4F8806546EA8101C4F8BE
:1018E0008015D4F8801541EA4201C4F88015D4F877
:1018F000842503F00F0122F00F02C4F88425D4F8E8
:1019000084250A43C4F884252979D5F8052041EABD
:101910000221C4F88C152978D5F8012041EA02216A
:10192000C4F88815D4F8801541F00101C4F8801579
:10193000F0BD01E0FF20FBE77605C7E70864004043
:1019400000600040174928B1012810D002281BD0A0
:101950000520704708680A6800F0010002F00202E2
:101960000243086800F0806042EA1060704708682F
:101970000A6800F0010002F002020243086800F069
:10198000006042EA5060704708680A6800F0010091
:1019900002F002020243086800F0805042EA9060C0
:1019A0007047000008640040002A426901D00A43E1
:1019B00000E08A43426170477CB5174C00206D46B9
:1019C000215C2954401CC0B20828F9D3294640F2B2
:1019D0000110FFF746FF00202118097A2954401C06
:1019E000C0B20828F8D369464FF48170FFF739FF79
:1019F00000202118097C2954401CC0B20828F8D3C3
:101A0000694640F20310FFF72CFF044800780028D5
:101A100001D000F005F87CBDA60800201C020020C3
:101A20001CB500208DF800001A48DFED1B0A90ED70
:101A3000000A20EE200ABDEEC00A10EE101A0912AC
:101A40008DF8011010EE101A8DF8021090ED010AB9
:101A500020EE200ABDEEC00A10EE101A09128DF811
:101A6000031010EE101A8DF8041090ED020A69466A
:101A700020EE200ABDEEC00A10EE100A00128DF80A
:101A8000050010EE100A8DF8060040F20510FFF771
:101A9000E8FE1CBD0C01002000007A4410B50021B6
:101AA000642002F035FC012806D002280BD1322038
:101AB0000AF084FD02F0E4FE03490878401CC0B23D
:101AC00008701528F3D010BD045F002030B5034620
:101AD0000020012908D10022094C03E0A55C6840E0
:101AE000521CD2B29A42F9D3002908D1044A3232A8
:101AF00003E0545C6040491CC9B29942F9D330BD3F
:101B0000A608002010B504460020012908D10021B4
:101B1000044A03E0535C5840491CC9B2A142F9D3BE
:101B200010BD0000F80800201CB50AF0C5FD0190AA
:101B3000BD4900204FF4FA7401EB8002401C54614F
:101B40000628F9DB4FF49670C1E90104B74EDFF8BF
:101B5000E0B2012740F6C4184FF0020900250A211F
:101B600001A80DF0BFFFB34940F6B8324868904273
:101B700001DA401C4860DFF8C0A2DAF80000401C1F
:101B8000CAF8000001F0B6F8FFF788FFA649087808
:101B9000C01E1128E3D2DFE800F00A36094A506976
:101BA00089A9C9EFEDECEB090909EA00D7E7486814
:101BB0008A46002805DD401ECAF8040044F29F1042
:101BC00007E0DAF80800002804DD401ECAF8080023
:101BD0009A4830609A48007808280CD2DFE800F074
:101BE0001B0421211B211B1B0095336819464A4207
:101BF000104604F06FF8DAF804100029AFDCDAF8C8
:101C000008000028ABDC00231A4619461846009548
:101C100004F060F8A3E70095336818464242114685
:101C2000E7E700953368184602460146E1E7A72139
:101C300042F20F7004F0A6FD91E7087B10B1012875
:101C400008D010E04869404501DA401D4861404530
:101C500009DB0F734869A04203DD401F4861A042C1
:101C600001DC81F80C9049695846A5E0087B022800
:101C700002D04C61CBF80040487B10B1012808D05D
:101C800010E08869404501DA401D8861404509DB64
:101C90004F738869A04203DD401F8861A04201DCC8
:101CA00081F80D9062488969001F85E0487B022811
:101CB00003D05F488C61001F0460887B10B101284D
:101CC00008D010E0C869404501DA401DC8614045B0
:101CD00009DB8F73C869A04203DD401FC861A042C1
:101CE00001DC81F80E90C969564865E0887B0228BE
:101CF00002D05448CC610460C87B10B1012808D0E0
:101D000010E0086A404501DA401D0862404509DBE1
:101D1000CF73086AA04203DD401F0862A04201DCC5
:101D200081F80F904748096A001F45E0C87B0228E8
:101D300003D044480C62001F0460087C10B10128E5
:101D400008D010E0486A404501DA401D486240452D
:101D500009DB0F74486AA04203DD401F4862A042BD
:101D600001DC81F810903748496A083824E04FE0D8
:101D70004AE03EE022E0FFE7087C022803D0314839
:101D80004C6208380460487C10B1012808D010E08B
:101D9000886A404501DA401D8862404509DB4F747E
:101DA000886AA04203DD401F8862A04201DC81F8FE
:101DB00011902448896A0C380160D0E600200A1886
:101DC000157301EB8002401C54610628F7DB1D48A7
:101DD0008A6A0C380260001D4A6A0260001D0A6AA5
:101DE0000260001DCA69026011488A69001F026012
:101DF00039E7DAF800006421B0FBF1F0C00703D046
:101E00001148C0F8A072AAE60F48C0F8A052A6E692
:101E100091F82D008A460128CFD105F0A3FB8AF85E
:101E20002D508AF860509AE6045F002020020020BE
:101E3000381800401C5D0020C002002061BEFFFF7A
:101E4000010200204004014000004042034989880B
:101E5000C140C80700D001207047000048000020A2
:101E6000174A032809D01346DFED160A93ED000A3E
:101E7000082809D00A280ED015E0012913D11249EB
:101E80000120096808740EE0022901D001290AD155
:101E900030EE600A05E0022901D0012903D130EEBD
:101EA000200A82ED000A92ED000AB5EEC00AF1EEBA
:101EB00010FA03D29FED050A82ED000A7047000078
:101EC00004020020000048425001002000000000F1
:101ED00070B504460020024604EB8001401CC1F8A6
:101EE00088291028F8D300204FF400652118401CE1
:101EF00081F81C21A842F9D3227062700120A070E1
:101F0000C4F8C82920764021A171627684F81C2982
:101F100084F81D0984F81F29010284F81E2904F1A0
:101F20001C00FEF7C2F9294604F58E70FEF7BDF9D4
:101F3000122104F62610FEF7B8F93E2104F63810F7
:101F4000FEF7B3F9002070BD704700002DE9F0479F
:101F5000F0EE411A2DED108BF0EE0CFAB8EE0CEA13
:101F6000B0EE602AB0EE6F1AF0EE4E0A0DF058FA9D
:101F7000B0EE408AB0EE6F1AF0EE4E0AB0EE420AB2
:101F80000DF04EFAB0EE40AAB0EE6F1AF0EE4E0A27
:101F9000B0EE610A0DF044FAFF4CF0EE408A207872
:101FA00018B1012801D006280FD1FC48FC4A00785E
:101FB000F0B382ED008A82ED01AAC2ED028A92EDB1
:101FC000008A92ED01AAD2ED028AF64D012128691C
:101FD0000DF0C4FFF0EE409A002128690DF0BEFF1D
:101FE0002078DFF8C483F14EF14FF249F24DF34C03
:101FF000B0EE409AF0B3062846D09FEDF1DBDFED5E
:10200000F2EAB6EE00FA012865D002287ED0032855
:1020100005D004287BD00728FCD0052878D191ED85
:10202000000A68EE800AB0EE480A00EECF0A00E02F
:1020300021E000EE8F8A85ED020AB0EE6F1AF0EE15
:102040004E0A84ED028A0DF0EBF985ED020A94ED5B
:10205000020AB0EE6F1AF0EE4E0A0DF0E1F9C6ED8D
:1020600002EAC7ED02EAD5ED020A60EEA90AC5ED63
:10207000020ADFE108E0B0EE681AF0EE4A0AB0EEBC
:10208000480A03F061FE9AE798ED000A91ED001A04
:102090007AEE080A30EE010A38EE4A1AF0EE601ABB
:1020A00048EEC00A48EE801AC5ED020AB0EE602A7A
:1020B000F0EE410A08EE801A48EEC00AB0EE420A7D
:1020C000C4ED020AC6ED021A87ED021AB0EE6F1ACD
:1020D000F0EE4E0ACDE1DFF8F482F0EE4A0A98ED18
:1020E000000A40EE280A20EE280A10EE100AC5ED7C
:1020F000020AFEF7BFFA2AEE0FFA41EC1C0B1FEEA4
:10210000100AFEF7B7FA41EC1B0B02E083E096E100
:102110007DE018EE100AFEF7ADFA41EC1A0BB0EEB6
:102120004D0AF0EE6D0A08F05FFE9FEDA91B51EC21
:10213000100B53EC112BFEF77FF953EC1A2BFEF723
:102140007BF953EC1B2BFEF771F953EC1C2BFEF7BC
:10215000CCF8FEF7A2FAA06098ED000A20EE280A5B
:1021600010EE100AFEF786FA41EC1A0B1FEE100A69
:10217000FEF780FA41EC1B0B18EE100AFEF77AFA14
:1021800041EC180BB0EE4D0AF0EE6D0A08F02CFE93
:102190009FED911B51EC100B53EC112BFEF74CF9FA
:1021A00053EC182BFEF748F953EC1B2BFEF73EF9C6
:1021B00053EC1A2BFEF799F8FEF76FFAB06095ED25
:1021C000020AB0EE6F1AF0EE4E0A0DF029F985ED15
:1021D000020A94ED020AB0EE6F1AF0EE4E0A0DF00C
:1021E0001FF984ED020A96ED020AB0EE6F1AF0EEC6
:1021F0004E0A0DF015F9C7ED02EAD4ED020A20EE01
:10220000090A60EEA90AC4ED020A86ED020ABDECD5
:10221000108BBDE8F0879FED72CA91ED000A8946E8
:1022200020EE0F0A10EE100AFEF724FA41EC1A0B0A
:1022300018EE900AFEF71EFA41EC100B08F014FE9F
:10224000B0EE40BAF0EE60BAD8F80000FEF712FA2D
:1022500053EC1B2BFEF762F953EC1A2BFEF7E6F852
:10226000FEF71BFA01EE900A9FED5E1ADFED5E0AA3
:10227000B0EE680A0DF0D4F8B5EEC00AB0EE40BA80
:10228000F1EE10FA16D099ED000AF0EE610A40EE78
:102290004F0A60EE880A80EEA11AF0EE610A40EE65
:1022A0000F0A20EE880AC0EE210A85ED021AC4ED5D
:1022B000020A03E085ED028A84ED028A9FED4B0A53
:1022C0002BEE000A10EE100AFEF7D4F941EC1A0BBF
:1022D0001BEE100AFEF7CEF941EC100B9FED441BEC
:1022E00007F05AFF9FED441B51EC100B53EC112BE0
:1022F000FEF7A2F841EC180B1BEE100AFEF7BAF934
:1023000041EC100BB0EE4D1AF0EE6D1A07F044FFE1
:102310009FED3B1B51EC100B53EC112BFEF78CF88F
:1023200053EC182BFDF7E1FF53EC1A2BFEF77EF868
:102330009FED351B53EC112BFDF7D7FFFEF7ADF9E1
:1023400000EE100ADFED320A334BB0EE6F1A70EE7A
:10235000600A9FED300A00EE8C0AF0EE4E0ABDEEE8
:10236000C00A83ED000A95ED020A0DF059F885EDDB
:10237000020A94ED020AB0EE6F1AF0EE4E0A0DF06A
:102380004FF884ED020AC6ED02EAC7ED02EA40F614
:1023900098024FF4487141E001020020050100203D
:1023A000C05C00205802002044020020F45C0020A1
:1023B000085D002040020020CC5C0020E05C002092
:1023C000000000000000084000000000480200205B
:1023D000000000000000E0BF000000000000E03F3F
:1023E000D7231F440AD7A33E48E1FABEE5D0E23F17
:1023F000000000000000004000000000D34DF43F4A
:10240000000000809318E4BF00000000022BF93F99
:102410004C37C93F0080BB442802002018680DF0EB
:102420000FF8186095ED020A20EE290A85ED020AE0
:1024300094ED020A20EE090A84ED020AE7E691ED26
:10244000000AD8ED000AB0EE6F1A30EE200A60EEF6
:10245000280AB0EE480A00EECF0A00EE8F8AF0EEAE
:102460004E0A85ED020A84ED020A86ED028A87EDA6
:10247000028A0CF0D5FF85ED020A94ED020AB0EE57
:102480006F1AF0EE4E0A0CF0CBFF84ED020A96EDC7
:10249000020AB0EE6F1AF0EE4E0A0CF0C1FF86EDA4
:1024A000020A97ED020AB0EE6F1AF0EE4E0A0CF037
:1024B000B7FFD5ED020A20EE090A60EEA90AC5EDC4
:1024C000020AD4ED020A60EEA90AC4ED020AD6EDB2
:1024D000020A60EE890AC6ED020A87ED020A96E654
:1024E0001CB50121082003F0D3F80820009000203B
:1024F0008DF8040003208DF8050001208DF80700F9
:102500006946024800F03CFA1CBD0000000C024085
:10251000F0B5012189B0084603F0D2F8012103206B
:1025200003F0B6F803258DF8055002264FF400405D
:102530008DF8046001242B4F00908DF806408DF833
:1025400007406946384600F01BFA8DF805508DF8B3
:1025500004608DF806408DF807400820224C00905A
:102560006946204600F00CFA01220F21384600F09F
:1025700043FA01220321204600F03EFA02A804F0AB
:1025800027FC00244FF6FF70ADF808400390750754
:10259000ADF81040ADF80A4002A9284604F0DAFB75
:1025A00000231A460321284604F0F5F905A804F093
:1025B00075FAADF81C4005A9284604F019FA012166
:1025C000284604F0CDF901221146284604F06EFA9F
:1025D0000021284604F094FB0121284604F0C6F9A6
:1025E00009B0F0BD000002400004024030B589B0DF
:1025F0000121022003F064F80121022003F048F8D1
:102600003020039003208DF8110002208DF8100077
:1026100001208DF81200224C8DF8130003A92046EA
:1026200000F0AEF902220421204600F0E5F9022272
:102630000521204600F0E0F9684604F0C9FB0024BB
:102640004FF6FF70174DADF800400190ADF808400F
:10265000ADF802406946284604F07CFB00231A4688
:102660000321284604F097F905A804F017FAADF8FD
:102670001C4005A9284604F0BBF90121284604F0B6
:102680006FF901221146284604F010FA002128466D
:1026900004F036FB0121284604F068F909B030BD8A
:1026A000000402400004004030B589B0012104203C
:1026B00003F006F80121022002F0EAFFC020039097
:1026C00003208DF8110002208DF8100001208DF8F4
:1026D0001200224C8DF8130003A9204600F050F997
:1026E00002220621204600F087F902220721204617
:1026F00000F082F9684604F06BFB00244FF6FF708F
:10270000174DADF800400190ADF80840ADF802401B
:102710006946284604F01EFB00231A46032128467A
:1027200004F039F905A804F0B9F9ADF81C4005A981
:10273000284604F05DF90121284604F011F9012230
:102740001146284604F0B2F90021284604F0D8FAD0
:102750000121284604F00AF909B030BD0004024006
:102760000008004030B589B00121082002F0A8FF20
:102770000121084602F08CFF274C0222002120464E
:1027800000F03AF902220121204600F035F9022139
:102790008DF811108DF81010012103208DF8121002
:1027A00003908DF8131003A9204600F0E9F868465D
:1027B00004F00EFB00244FF6FF70184DADF80040FA
:1027C0000190ADF80840ADF802406946284604F093
:1027D000C1FA00231A460321284604F0DCF805A8B4
:1027E00004F05CF9ADF81C4005A9284604F000F996
:1027F0000121284604F0B4F801221146284604F0CD
:1028000055F90021284604F07BFA0121284604F0FE
:10281000ADF809B030BD000000000240000C0040DF
:1028200072B6FEE7B5EEC00A0E48F1EE10FA04D219
:10283000B1EE400A4FF0FF3100E00121FDEEC00A89
:102840008160C0ED000AF8EEE00A30EE600ADFEDCC
:10285000060A20EE200ABDEEC00A80ED010A0148FA
:10286000704700005003002000007A441CB505A00A
:10287000D0E90010CDE9001069460448FEF7D6FF04
:102880001CBD000001010101010101017856341253
:1028900010B5002002F0AEFF174C411C00D02060A4
:1028A000012002F0A7FF411C01D01449086002205A
:1028B00002F0A0FF411C01D011490860032002F082
:1028C00099FF1049421C00D0086194ED000AB5EE52
:1028D000C00AF1EE10FA04D310EE100A0A4A904230
:1028E00003DD9FED0A0A84ED000A0869642801D916
:1028F0003220086110BD0000040200200802002000
:102900000C0200205802002000401C460000FA4340
:1029100010B50178002486B0012926D1002101706C
:102920000B460A460846009103F0D4F90CF05EFF0E
:102930000F48042190ED000A10EE100A01900D4896
:1029400090ED000A10EE100A02900B4890ED000A7C
:1029500010EE100A039009480069049001A807F0DE
:10296000CDF8401CC4B20CF07DFF06B0204610BD6F
:1029700004020020080200200C020020580200205F
:10298000F0B5002201274FF0030C0B6807FA02F59F
:102990002B40AB422CD1066853000CFA03F4A6433B
:1029A00006600E79D0F800E09E4046EA0E0606600A
:1029B0000E79012E01D0022E12D18668A6438660C0
:1029C0004E79D0F808E09E4046EA0E0686604668DA
:1029D000AE43466045688E799640B6B23543456051
:1029E000C568A543C560CC799C40C3681C43C460DE
:1029F000521C102AC9D3F0BD4B07DB0E9A40C90800
:102A000010B500EB8100016A0F249C40A1430162D4
:102A1000016A1143016210BD418370470183704711
:102A20004FF6FF7101600021017141718171C17127
:102A3000704770B5D04000F001000C460870097B6B
:102A40000026012505293AD2DFE801F00337091DE8
:102A5000330088B30DF09AFE606002200AE00DF0AA
:102A600095FE6168401AA060217829B1B0F57A7F9F
:102A700025D90420207322E032281FD30DF086FED2
:102A800060600320F6E70DF081FE61684FF4C872C4
:102A9000401AA0602178012904D090420FD32573F9
:102AA000012070BD9042FAD2322808D92573022045
:102AB00070BD2573032070BD01E000B926730020AE
:102AC000F9E7000010B50A4C014607230122204611
:102AD000FEF732F82046FEF769F802212046FDF79E
:102AE000FEFF0028F9D02046BDE81040FDF7F4BFF6
:102AF0000020014010B50A4C014607230122204660
:102B0000FEF71AF82046FEF751F802212046FDF79D
:102B1000E6FF0028F9D02046BDE81040FDF7DCBFF5
:102B200000210140F0B466486749027865480D7895
:102B30000678664804789FED661A664BDFED662AD4
:102B4000DFED661A664F9FED672A674897ED000A2A
:102B50006649F1EE400A62B1012A0AD0062A08D07D
:102B6000092C66D2DFE804F0654346494E515659B8
:102B70006200092C24D2DFE804F02305080B1013AF
:102B8000181B200080ED000A0CE080ED000A01E037
:102B900080ED001AC3ED000A53E0C0ED000AF9E72A
:102BA000C0ED000A83ED001A4BE0C0ED000A01E021
:102BB00080ED001A83ED000A43E080ED000AF9E79A
:102BC00080ED001A83ED001A012E04D0012D07D0EC
:102BD00081ED001A35E0C0EE220A60EE820A03E0C1
:102BE000C0EE220A60EEA10AC1ED000A29E080EDE4
:102BF000000A0CE080ED000A01E080ED001AC1ED52
:102C0000001A0EE0C0ED000AF9E7C0ED000A81ED00
:102C1000001A06E0C0ED000A01E080ED001A81ED27
:102C2000002A012E08D0012D09D00AE080ED000A0B
:102C3000F5E780ED001AEAE781ED002A01E0C1ED39
:102C4000001A022A08D0032A13D0052A11D0042A18
:102C50000FD0072A0DD01FE091ED000AF0EE000A18
:102C600020EE200AF2EE020A80EE201A81ED001A10
:102C700012E0D0ED000AF5EEC00AF1EE10FAD1ED47
:102C8000000A03D2F1EE600AC1ED000A20EE800ACC
:102C9000C0EE220AC1ED000AD0ED000A9FED141A21
:102CA00080EE810A80ED000AD3ED001AC1EE810AA0
:102CB000C3ED000A91ED001AF0BCFFF747B9000020
:102CC000010200204E0200204F02002014020020CA
:102CD00000000000300200200000FA43DB0FC9BFF3
:102CE00004020020DB0FC93F2C0200203402002028
:102CF00000007A4470B502202DED068B02F05AFDDB
:102D0000594C2060032002F055FD6060042002F061
:102D100051FDA060052002F04DFD544DE060012101
:102D200028690DF01BF9B0EE408A002128690DF0EA
:102D300015F94F48007808281ED2DFE800F0046338
:102D40000B0B040B0404D4ED000AB8EEE0AAD4ED9A
:102D5000010A61E0D4ED000A6168B8EEE0AA4942D8
:102D600000EE901AF8EEE09AD4ED020AB8EEE09A7E
:102D7000D4ED030AF8EEE08A9FED3E3A3E49404A20
:102D80006AEE030A91ED001A3C493F4B60EE811A4E
:102D9000D1ED000A3B493D4C81EEA02A69EE831A31
:102DA00061EE812AC2EEA01A69EE032A28EE833A68
:102DB00082ED002A62EE813A23EE013AC3EEA02AA8
:102DC000C1ED001A83EE201AC3ED002A84ED001A2B
:102DD00078B306282ED004282CD007282AD0032820
:102DE00039D0052837D0022835D0012807D1C1EEC7
:102DF000880AC1ED000AC2EE800AC3ED000ABDECEC
:102E0000068B70BD2168494200EE901A6168B8EEE9
:102E1000E0AA494200EE901AA168F8EEE09A494211
:102E200000EE901AE168B8EEE09A494200EE901A7E
:102E3000A0E7FFE7C2EE080AC2ED000AC1EE880A69
:102E4000C1ED000AC2EE800AC3ED000AC1EE000A1D
:102E5000C4ED000AD3E7C2EE080AC2ED000AC1EED3
:102E6000800AC1ED000ACAE7285D00205802002050
:102E7000010200200000C8423C020020380200206D
:102E8000CC5C0020E05C0020F45C0020085D0020A9
:102E90002DE9F04100250E4607462C4608E038464D
:102EA000FFF710FE0544052009F088FB641CE4B21E
:102EB000B442F4D3B5FBF6F080B2BDE8F081000077
:102EC00010B50820FFF716FEFDF7A8FB9FED0E1BBF
:102ED00053EC112BFDF7B0FA9FED0D1B53EC112BAA
:102EE000FDF7AAFA9FED0C1B53EC112BFDF7A4FA8A
:102EF0009FED0B1B53EC112BFDF79EFAFDF7CDFB5D
:102F000000EE100A10BD00006666666666660A403E
:102F100000000000000026400000008014AEEF3FDB
:102F2000000000000000303FD0F8DC0305F0A5BA37
:102F3000D0F8DC0305F0B7BA006805F077BF006889
:102F400005F078BFC1EB011100EB8100002200F811
:102F50001A2F4270C272827210467047C1EB011183
:102F600000EB810090F84C007047C1EB011100EBC1
:102F70008100806B704710B5044690F8D403012897
:102F800009D0012084F8D403206805F05EFF0020FA
:102F900084F8D40310BD022010BD2DE9FF4F83B08B
:102FA0000546DDE9117690F8D403DDF840809346BC
:102FB0008A4601281CD0CAEB0A10012305EB8004C5
:102FC00085F8D4334FF0000984F8199006982075DD
:102FD00084F815A084F826700BF07F00A075514688
:102FE0002846FFF7AFFF5FEA0B6005D5E37505E004
:102FF000022007B0BDE8F08F84F81790286805F02C
:1030000019FF012F06D1B8F1010F03D110B9BC2E61
:1030100000D9BC2684F81880B0B22085CDF8008095
:10302000CDE9017028685A465146069B05F078FFA5
:1030300085F8D493DDE7D0F8DC0305F0ABBA2DE9D1
:10304000F0030E46DDE906C9DDE90874C1EB06119F
:1030500000EB81010225CA7581F82630BCF1000F12
:103060000AD081F82A50002463B1012B31D0022B01
:1030700028D0032B16D125E04FF0030881F82A80D1
:103080004C76F0E7BCF1010F0CD11AB18A7E012A0F
:1030900019D007E0D7B9012281F83D2000E0C2B184
:1030A00081F82A50C1F82C904F6381F84C408C6312
:1030B0004E7581F84D4082790068BDE8F003143107
:1030C00005F0BEBF12B191F83C20E8E791F83D2031
:1030D000E5E781F82A40E5E72DE9F041044600687C
:1030E000064605F0AEFE012876D1206806F062F9AA
:1030F000002871D0206806F05DF9800203D52168B0
:103100004FF400104861206806F054F9C00203D55E
:1031100021684FF480104861206806F04BF94001A7
:1031200003D521684FF080604861206806F042F9BD
:10313000800702D5216802204861206806F03AF92C
:10314000800018D521684FF000504861D6F840043F
:10315000C00710D11021304605F028FE304605F09A
:1031600009FE607A022803D10121206806F0FEF8EA
:103170002046FFF7DDFE206806F01CF9C00102D5ED
:10318000204600F01FFC206806F014F9000705D562
:10319000204600F0BAF8216808204861206806F04F
:1031A00009F9800123D5206805F046FF0746002570
:1031B0004FF0010814E005F00F0108FA01F0384261
:1031C0000DD006EB4510D0F80005E9B2000420460A
:1031D00003D500F0C6F802E01CE000F080FA6D1C98
:1031E0006079A842E7D821684FF0007048612068F4
:1031F00006F0E0F8C043C0060CD42068816921F0D5
:1032000010018161204600F027FC2068816941F0AF
:1032100010018161BDE8F081F8B5040005D094F893
:10322000D5032568002610B106E00120F8BD84F81A
:10323000D463204600F028F8032084F8D503B5F1C4
:10324000A04F00D1A671206805F060FD207C8DF8AC
:10325000000094E80F0005F0F9FC022560B9012197
:10326000206806F0E3F838B9207C8DF8000094E877
:103270000F0006F013F810B184F8D553D5E70120FC
:1032800084F8D5030020F8BD3EB50121084602F0C0
:10329000FFF90121802002F007FA4FF4C05000909E
:1032A00002208DF8040003208DF80500104D002445
:1032B0008DF8074069462846FFF762FB0A220B217A
:1032C0002846FFF799FB0A220C212846FFF794FBBA
:1032D00043208DF8080005208DF809008DF80A407C
:1032E00001208DF80B0002A801F08EFA3EBD00000F
:1032F00000000240D0F8DC0305F069B9D0F8DC0327
:1033000005F069B9006806F078B8D0F8DC0305F07C
:103310000AB910B5044690F8D40301280DD0012055
:1033200084F8D4030121206805F008FD206805F029
:103330001BFD002084F8D40310BD022010BD10B581
:10334000044690F8D403012809D0012084F8D4035E
:10335000206806F099F8002084F8D40310BD0220FC
:1033600010BD2DE9F05F054600680E46074606F0E1
:1033700019F8C6EB061140074FF007084FF0040993
:1033800005EB810401D5484633E03146286806F054
:1033900009F8C0054FF0080A08D507EB46114FF4AD
:1033A0008070C1F8080584F84DA028E031462868EF
:1033B00005F0F8FF000705D507EB4611C1F808A591
:1033C00006200CE03146286805F0ECFF400509D5E1
:1033D00007EB46114FF48060C1F80805092084F816
:1033E0004D000CE03146286805F0DCFF00060AD5E8
:1033F000802007EB4611C1F8080584F84D8031465E
:10340000286805F022FD3146286805F0CBFF8005CD
:103410002868314604D505F018FD4FF4007059E1D5
:1034200005F0C0FFC0074FF0200B4FF0010A4FF02E
:1034300000084ED007EB4617C7F808B5E07E012814
:1034400007D184F81B80D7F8040520F48030C7F832
:103450000405A87930B1206BD7F81015C1F312011B
:10346000401AA06384F84DA0C4F844805246C7F8BF
:1034700008A594F8260030B1022804D003280AD009
:10348000012808D013E03146286805F0DEFC102042
:10349000C7F808050BE0D7F8000540F00050C7F862
:1034A000000584F84C2031462846FFF7C4FDA87972
:1034B000012807D1208DA16B0144491EB1FBF0F01A
:1034C000C00704D014F83C0F80F001002070BDE864
:1034D000F09F3146286805F065FF80060CD507EBA4
:1034E0004611C1F808B5A07E0128F0D184F81BA0D0
:1034F000032084F84D00B4E03146286805F052FFFF
:1035000080074FF0050B75D507EB46100222C0F877
:10351000082594F84D10012916D0062919D007293D
:103520001CD009291AD0052933D0032963D00429D6
:103530007DD008297ED00229C9D094F84C2031468C
:103540002846FFF778FDC2E784F84D2084F84CA0A8
:10355000F3E784F84D2084F84CB0EEE784F84D2072
:10356000616C491C6164022910D9C4F84480A27EB0
:103570004146012A07D1E1762177D0F8041521F4DC
:103580008031C0F8041584F84C90D6E784F84C20BC
:1035900022E084F84D20E17E0129CED194F8261056
:1035A0000329F3D1A16C491CA164022911D9C4F8E3
:1035B000488084F81B80616C032901D284F81CA028
:1035C000D0F8041521F48031C0F8041584F84C902B
:1035D00002E084F84C20B0E794F8261009B10229E3
:1035E000ABD1D0F8001521F0804141F00041C0F886
:1035F0000015A2E724E084F84D20E17E01299CD14A
:1036000084F84C20D0F8041541F48031C0F804153A
:10361000D0F80C1541F04001C0F80C15D0F80C158D
:1036200021F02001C0F80C15D6E700E002E084F894
:103630004D20ABE784F84D20606C401C6064A2E72D
:103640003146286805F0AEFE400610D507EB46115E
:103650004020C1F8080584F84DB0A07E08B9C4F830
:10366000448031462868BDE8F05F05F0EEBB314686
:10367000286805F097FEC0067FF565AF94F8260030
:10368000032803D028B1022803D00FE0C4F84480F7
:1036900006E0C4F84480A87910B1E07E012818D172
:1036A00084F84D903146286805F0CFFBE07E012874
:1036B0000FD107EB461084F81B80D0F8041521F4D5
:1036C0008031C0F80415D0F80C1541F02001C0F885
:1036D0000C15102007EB4611C1F80805F7E62DE997
:1036E000F05F054600680F46064605F05BFEC7EB37
:1036F000071140074FF0040A05EB810405D506EBDE
:103700004711C1F808A5072089E03946286805F067
:1037100049FE80064FF000084FF001094FF0020B00
:1037200028D506EB47112020C1F80805607E032646
:10373000012809D184F8198084F84CB084F84D60D0
:103740003946286805F081FBA07E012810D1E07E73
:1037500000280DD194F82600012801D084F81B9090
:1037600084F84D603946286805F06FFBC4F8448042
:10377000BDE8F09F3946286805F014FE800506D59F
:1037800006EB47114FF40070C1F8080549E03946CF
:10379000286805F007FEC00720D0C4F844803946E9
:1037A000286805F0FFFD400606D506EB471184F8B2
:1037B00019904020C1F80805E07E48B106EB47109B
:1037C00084F81B80D0F8041521F48031C0F804156A
:1037D00006EB47114846C1F8089520E039462868AD
:1037E00005F0E0FD40060ED5052084F84D00A07ED2
:1037F00008B984F81990C4F844803946286805F05F
:1038000024FB402028E03946286805F0CBFD00075E
:103810000DD506EB47110820C1F80805062084F8ED
:103820004D0039462868BDE8F05F05F00EBB39460B
:10383000286805F0B7FDC00613D5C4F8448084F8A5
:103840004DA0607E18B9207E08B984F819903946D9
:10385000286805F0FAFA102006EB4711C1F80805B0
:1038600086E73946286805F09DFD00061CD5A87935
:1038700070B1606C401C6064022811D9C4F84480A7
:10388000524684F84CA039462846FFF7D4FB09E09D
:10389000072084F84D003946286805F0D6FA01E083
:1038A00084F84CB08020D7E73946286805F07AFDC7
:1038B000400509D5092084F84D003946286805F0EF
:1038C000C4FA4FF48060C7E73946286805F06AFDFE
:1038D0008007C5D506EB47115A46C1F808B594F8DC
:1038E0004D00012817D003283AD0042840D00528DD
:1038F0004ED006284FD0072801D00928B0D184F82F
:103900004D20606C401C606402284AD9C4F8448091
:1039100084F84CA04FE084F84D2084F84C9094F843
:103920002600022801D0032845D1A87928B994F8A7
:103930003D0080F0010084F83D00A87901283AD1CB
:10394000606B20B3218D0844401EB0FBF1F0C0072E
:1039500031D094F83D0080F0010084F83D002AE069
:1039600084F84D20E07E012825D184F84C2022E007
:1039700084F84D2084F84C20E07E01281BD184F887
:103980001B80D1F8040520F48030C1F8040512E052
:1039900084F84D20E9E784F84D20052084F84C0098
:1039A00009E084F84C20D1F8000520F0804040F078
:1039B0000040C1F8000594F84C2039462846FFF72E
:1039C0003AFBD5E67CB504680546D4F8400401907E
:1039D000D4F8400420F02E0000900198800709D50B
:1039E0000198C00702D02846FFF79EFA009840F0E1
:1039F000020000900198000724D5009840F00800CC
:103A00000090019840071AD5687A022803D0E87917
:103A100001280CD00FE00198C0F34140022828682B
:103A200003D0012105F0A2FC05E00221FAE74EF6E1
:103A30006020C4F804042846FFF760FC02E0284632
:103A4000FFF758FC01988006009802D540F020004E
:103A50000090C4F840047CBD2DE9F04102460068A6
:103A60000746016AC1F3434301F00F06C1F30A158B
:103A7000022B2ED1002D2CD0C6EB061102EB8104B7
:103A8000E16A002925D0A26B636B2A449A4222D8AE
:103A90002A4605F093FCE06A2844E062A06B2844C3
:103AA000A06307EB4610D0F81015228DC1F3C94171
:103AB000AA420ED100290CD0D0F8001521F0804187
:103AC00041F00041C0F8001514F83C0F80F00100EF
:103AD0002070BDE8F081042084F84C00F9E7FEE78F
:103AE00070B50D4C0025C4F8A8520C48016821F4AB
:103AF00040010160016841F480010160C4F8AC52EA
:103B0000012004F52A7408F075FD0120206008F0FA
:103B100071FD256070BD000000804042000402403D
:103B20001CB50121022001F0B3FD4FF440600124D7
:103B300000908DF8044000208DF8060003208DF8D9
:103B400005008DF8074069460448FEF719FF044850
:103B5000C0F8A842C0F8AC421CBD000000040240FE
:103B60000080404270B50D4C0026C4F8A8620C4895
:103B7000016821F440010160016841F480010160A5
:103B80000125C4F8AC52284604F52A7408F032FD29
:103B90002560012008F02EFD266070BD00804042A7
:103BA000000402402DE9F0478146184800250168CD
:103BB00021F44001016001680160154E2C462F463A
:103BC0004FF00108C6F8A872012008F013FDC6F8EE
:103BD000A8826806D6F82C12000E11B140F001053B
:103BE00001E020F00105012008F004FD641CE4B2AE
:103BF000082CE7D3B9F1000F04D0FFF7B3FF284634
:103C0000BDE8F087FFF76CFFF9E700000004024011
:103C10000080404270B50D46044600F01BF8204677
:103C200000F0B0F800F05EF8284600F0ABF800F0C5
:103C300059F800F00FF844F0010000F0A3F800F08C
:103C400051F80120FFF7AEFF044600F02BF82046A4
:103C500070BD000070B51148016821F44001016099
:103C6000016841F4800101600D4C0120C4F8AC02F0
:103C7000D4F82C1200290FD0C4F8A80208F0BAFC1E
:103C80000025C4F8AC52D4F82C02002804D101203D
:103C900008F0B0FCC4F8A85270BD00000004024057
:103CA000008040420D4810B5016821F440010160D8
:103CB000016841F480010160094C0020C4F8A802A9
:103CC000C4F8AC02012004F52A7408F093FC01202A
:103CD00020606060BDE8104008F08CBC0004024029
:103CE0000080404270B512480024016821F4400170
:103CF0000160016801600F4D0126C5F8AC623046D5
:103D000008F078FCC5F8A86207E0641CE4B2322C25
:103D100003D9FFF7C7FF002070BD012008F06AFC3F
:103D2000D5F82C020028F0D1C5F8A802012070BDFA
:103D300000040240008040422DE9F0411D46144637
:103D40000F468046069EFFF765FF621CFF21C4F107
:103D5000080301FA02F22B445B1ED9400A43C5F165
:103D600008018E40D2B2F1B2C4F10703D94010402D
:103D700040EA01023946404600F034F80120BDE82F
:103D8000F08100002DE9F04105461448016821F456
:103D900040010160016841F480010160104E00277C
:103DA000C6F8A8723C464FF00108E809C6F8AC0214
:103DB0006806050E012008F01DFCC6F8A882012047
:103DC00008F018FCC6F8A872012008F013FC641C67
:103DD000E4B2082CE9D3BDE8F08100000004024001
:103DE0000080404270B515460E460446FFF732FF8C
:103DF0002046FFF7C7FFFFF775FF3046FFF7C2FF0A
:103E0000FFF770FF2846FFF7BDFFFFF76BFFFFF7D7
:103E100049FF012070BD00000F4820B5811C021D24
:103E200008F068FC0D484068B0F57A7F12DB0A495B
:103E30001E39CA8B8A810B8CCB81488C08820D88F5
:103E4000521BCA834A889A1A0A848A88801A00F503
:103E500080404884204620BDFE5E00201C5D00207E
:103E6000164820B5811C021D08F0B4FC1448154A00
:103E7000154943680120B3F57A7F02DA08601070B3
:103E800019E0124B5D6815B90025157058604FF4A4
:103E900096700860094918390A8B4A824B8B8B82CD
:103EA000888BC882CD88521B0A830A899A1A4A8352
:103EB0004A89801A8883204620BD0000F85E0020D1
:103EC0001C5D00200002002040000020380100207E
:103ED0000021D020FFF79EBE08B508F0EDFB0F4F84
:103EE0000D4C4FF47A7507F1180807F11E06009083
:103EF0000A2168460BF0F6FD6068A84207DA4146E1
:103F0000B81D00F00DF83146044800F009F8FFF73D
:103F100083FFFFF7A5FFEBE71C5D0020E05E0020BC
:103F20000A8802804A884280898881807047000020
:103F30002E4930EEC00A2E48D1ED070A2E4A90EDE8
:103F4000001A70EE600A2B4860EE810A90ED001AAC
:103F500041EE000A91ED061A70EE810A10EE900A09
:103F6000C1ED060A904203DDDFED240AC1ED060A29
:103F700010EE900A224A904203D9DFED220AC1EDE9
:103F8000060A81ED070A887848B3B0EE600AF7EEBA
:103F9000000AB5EEC00AF1EE10FA03DD30EE600A59
:103FA00081ED060AB5EEC00AF1EE10FA03D230EE4A
:103FB000200A81ED060A10EE100AB0F1804F0ADAED
:103FC000B0F1404F07D29FED100A81ED060A087943
:103FD00040F0010002E0087920F00100087191ED45
:103FE000060ABDEEC00A10EE100A70475802002003
:103FF000080200200C0200200078824600788246E9
:10400000007882C6007882C6000000002E4930EE9B
:10401000C00A2E48D1ED0A0A2E4A90ED001A70EE21
:10402000600A2B4860EE810A90ED001A41EE000A0A
:1040300091ED091A70EE810A10EE900AC1ED090A9D
:10404000904203DDDFED240AC1ED090A10EE900A6B
:10405000224A904203D9DFED220AC1ED090A81ED1F
:104060000A0A887848B3B0EE600AF7EE000AB5EEA7
:10407000C00AF1EE10FA03DD30EE600A81ED090AA4
:10408000B5EEC00AF1EE10FA03D230EE200A81ED4F
:10409000090A10EE100AB0F1804F0ADAB0F1404F71
:1040A00007D29FED100A81ED090A087940F002005D
:1040B00002E0087920F00200087191ED090ABDEED6
:1040C000C00A10EE100A70475802002008020020B3
:1040D0000C0200200078824600788246007882C672
:1040E000007882C600000000334930EEC00A334831
:1040F000D1ED0D0A334A90ED001A70EE600A304897
:1041000060EE810A90ED001A41EE000A91ED0C1A62
:1041100070EE810A10EE900AC1ED0C0A904203DDA8
:10412000DFED290AC1ED0C0A10EE900A274A9042F1
:1041300003D9DFED270AC1ED0C0A264881ED0D0AEF
:10414000DFED250A0078032803D0022801D00528D6
:1041500001D1C1ED0C0A887838B391ED0C0AB7EEA5
:10416000001AB5EEC00AF1EE10FA03DD30EE410A96
:1041700081ED0C0AB5EEC00AF1EE10FA03D230EE72
:10418000010A81ED0C0A10EE100AB0F1804F08DA36
:10419000B0F1404F05D2C1ED0C0A087940F004009F
:1041A00002E0087920F00400087191ED0C0ABDEEE0
:1041B000C00A10EE100A70475802002008020020C2
:1041C0000C0200200078824600788246007882C681
:1041D000007882C60102002000000000384930EE5D
:1041E000C00A3848D1ED100A384A90ED001A70EE36
:1041F000600A354860EE810A90ED001A41EE000A2F
:1042000091ED0F1A70EE810A10EE900AC1ED0F0ABF
:10421000904203DDDFED2E0AC1ED0F0A10EE900A89
:104220002C4A904203D9DFED2C0AC1ED0F0A2B482E
:1042300081ED100ADFED2A0A0078032805D0022854
:1042400003D0052801D0012801D1C1ED0F0A8878DB
:1042500078B391ED0F0AB7EE001AB5EEC00AF1EE91
:1042600010FA03DD30EE410A81ED0F0AB5EEC00A07
:10427000F1EE10FA03D230EE010A81ED0F0A10EED2
:10428000100AB0F1804F08DAB0F1404F05D2C1ED0D
:104290000F0A087940F0080002E0087920F00800D1
:1042A000087108790F2804D1002088700122CA7093
:1042B000087191ED0F0ABDEEC00A10EE100A7047AA
:1042C00058020020080200200C02002000788246DC
:1042D00000788246007882C6007882C601020020FB
:1042E000000000001CB50121102001F0D1F90021CF
:1042F0008DF80410032101208DF8051000908DF831
:10430000070069460148FEF73BFB1CBD0010024058
:1043100000EE100AB7EE001A70B5F8EE400A394800
:10432000394D002281EE200ADFED350A037A20EEB6
:10433000200A4BB1C271C282028342838283D5F8C4
:104340000032012B00D10272D5F80032012463B98A
:10435000037A53B9C471438B5B1C9BB243838B427A
:1043600003D94283038B5B1C0383DFED280A068B92
:1043700080EE801AFCEEC10A10EE903A9BB2B34276
:1043800002D20472032070BDC379B3B3D5F80032F2
:10439000012B09D1838B5B1C9BB283838B4203D996
:1043A0008283C18A491CC182DFED190A80EE801A1E
:1043B000FCEEC10A10EE901ADFED160A8AB2C18A2D
:1043C0008A420ED280EE801ABCEEC11A11EE102A7B
:1043D00092B28A4205D9D5F8001271B9047202204E
:1043E00070BD80EE801ABCEEC10A10EE102A92B2A7
:1043F0008A4203D20472012070BDFFE70020FBE770
:1044000000007A44200000200000424200001644D0
:10441000000048420000FA4310B500216420FFF775
:1044200077FF15490968002915D1144A02F11801CE
:104430008C1D012810D0022813D003280BD110495D
:10444000012008700F490878401CC0B2087001288C
:1044500001D90020087010BD0B4B187850B1002016
:104460001870901DFFF75CFD2146BDE81040034821
:10447000FFF756BD0120F3E718020020E05E0020A0
:10448000A9020020A40200200501002000EE900AED
:1044900041421E4AB8EEE01A00EE901A00B592EDC5
:1044A000010AF8EEE00A0AF0BBFF00EE900A82ED86
:1044B000010A174AB8EEE01A00EE901A92ED010ACE
:1044C000F8EEE00A0AF0ACFF00EE900A82ED010A75
:1044D000104AB8EEE01A00EE901A92ED010AF8EEDA
:1044E000E00A0AF09DFF00EE900A82ED010A0A4AF6
:1044F000B8EEE01A00EE901A92ED010AF8EEE00A2A
:104500000AF08EFF82ED010A00BD0000CC5C0020A5
:10451000E05C0020F45C0020085D002070B53C21C8
:10452000D020FFF777FB04463B21D020FFF772FB3A
:1045300004EB00201F4C3E21E083D020FFF76AFBF4
:1045400005463D21D020FFF765FB05EB00202084C8
:104550004021D020FFF75EFB05463F21D020FFF72A
:1045600059FB05EB0020144900B260844A68012120
:10457000124B134EB2F57A7F02DA3160197070BDBA
:10458000104A156815B900251D7011604FF4967119
:104590003160E18BA181228CE28120822388C91ABB
:1045A000E1836188511A2184A188401A00F5804076
:1045B000608470BDE05E00201C5D002000020020D1
:1045C000400000204801002070B54421D020FFF7B2
:1045D00021FB04464321D020FFF71CFB04EB002005
:1045E000174C46212083D020FFF714FB05464521B8
:1045F000D020FFF70FFB05EB002060834821D0207F
:10460000FFF708FB05464721D020FFF703FB05EB2A
:1046100000200C4900B2A0834968B1F57A7F0DDB18
:10462000218B6182628BA282E082E388C91A218396
:104630002189511A61836189401AA08370BD0000ED
:10464000E05E00201C5D0020BC2801D3012210E0A8
:10465000622801D302220CE02A2801D3032208E0B9
:10466000142801D3042204E00A2801D3052200E023
:1046700006221A21D020FFF7B5BB10B504464FF42F
:104680007A70844201D9044602E0042C00D204244A
:10469000B0FBF4F0401EC2B21921D020FFF7A2FBFC
:1046A0006008BDE81040FFF7CFBF7521D020FFF7AD
:1046B000B1BA10B580226B21D020FFF793FBC82040
:1046C00007F07CFF00226B21D020FFF78BFB01203D
:1046D00000F03AF8002000F02EF83220FFF7CDFF6E
:1046E00000223821D020FFF77DFB00226A21D02054
:1046F000FFF778FB00222321D020FFF773FB8022F5
:104700003721D020FFF76EFB7521D020FFF782FA0A
:10471000682801D0012010BD01226B21D020FFF7B5
:1047200061FB00226C21D020FFF75CFB3220FFF7F9
:10473000A4FF002010BD08B50223009004221C2114
:10474000D020FFF7F9FA08BD08B502230090042233
:104750001B21D020FFF7F0FA08BD000008B507F0D4
:10476000ABFF0F4F0D4C4FF47A7507F1180807F1A6
:104770001E0600900A2168460BF0B4F96068A84252
:1047800007DA4146B81DFFF7CBFB31460448FFF777
:10479000C7FBFFF7C3FEFFF717FFEBE71C5D002029
:1047A000E05E0020124910B510480860012211494E
:1047B000114803F0FDFD08B1FEF732F80F490E482D
:1047C00004F0E3F908B1FEF72BF80D490A4804F0AC
:1047D000DCF908B1FEF724F8074804F01DFA0028B8
:1047E00003D0BDE81040FEF71BB810BD54010020F7
:1047F000500100202D8C000848630020CC020020CE
:10480000EC020020FEE7704730B50F23C278017834
:104810000125FAB1144A126801F1E02102F4E062C4
:10482000C2F5E062C2F30722C2F10404D340427829
:10483000A24084781C401443220181F800240078AF
:1048400000F01F018D404009800000F1E020C0F819
:10485000005130BD01F01F0085404809800000F183
:10486000E020C0F8805130BD0CED00E00249084363
:1048700002490860704700000000FA050CED00E0F6
:10488000BFF34F8F04480168044A01F4E06111430B
:104890000160BFF34F8FFEE70CED00E00400FA0566
:1048A00010B40021084B0A46002003EBC004401C52
:1048B000C0B262548028F8D3491CC9B20829F3D386
:1048C00010BC00F0F1B800005C0300202DE9F047B7
:1048D0001F4690460E4682460025DDF8209011E0E6
:1048E0003146504600F004F9544607E019F8050037
:1048F00001216D1C00F09CFA641CE4B24445F5D320
:10490000761CF6B2BE42EBD3BDE8F08710B57F2827
:1049100016D83F2914D80723A3EBD10301F00701D0
:10492000C1F107040121A140064CDBB204EBC00039
:10493000002AC25CC9B201D00A4300E08A43C254D3
:1049400010BD00005C030020F0B516460D4607467A
:104950000024FFF7DBFF324629463846FFF7D6FF33
:104960002819C1B232463846FFF7D0FF641CE4B2C2
:10497000082CF5D3F0BD00007CB50121082000F023
:1049800087FE01268DF8046000244FF4F0408DF876
:10499000064000908DF805408DF807406946404874
:1049A000FDF7EEFF0121080700F08AFE012000F06C
:1049B000D1FD002000F0F0FE002000F0CBFD394DCD
:1049C000C5F8B042642005F52C7507F0F7FD2E60A0
:1049D0000021AE2000F02CFA0021D52000F028FAAA
:1049E0000021502000F024FA0021A82000F020FA35
:1049F00000213F2000F01CFA0021D32000F018FA1B
:104A00000021084600F014FA0021402000F010FABE
:104A100000218D2000F00CFA0021142000F008FA8B
:104A20000021202000F004FA0021022000F000FA0A
:104A30000021A12000F0FCF90021C02000F0F8F9CD
:104A40000021DA2000F0F4F90021122000F0F0F942
:104A50000021812000F0ECF90021EF2000F0E8F9BE
:104A60000021D92000F0E4F90021F12000F0E0F964
:104A70000021DB2000F0DCF90021302000F0D8F923
:104A80000021A42000F0D4F90021A62000F0D0F9E4
:104A90000021AF2000F0CCF9FFF702FF7CBD000041
:104AA000000C02400080414270B5104E002505F117
:104AB000B000C0B2002100F0BBF90021084600F0B0
:104AC000B7F90021102000F0B3F9002406EBC40070
:104AD0000121405D00F0ACF9641CE4B2802CF5D3F8
:104AE0006D1CEDB2082DE2D370BD00005C03002008
:104AF00010B50446B031C8B2002100F099F9102079
:104B000040EA1410002100F093F904F00F00BDE812
:104B10001040002100F08CB970B515460E460446D1
:104B20000CE02A463146204600F0A8F81034E4B2E2
:104B3000702C02D900241036F6B2AD1C287800285B
:104B4000EFD170BD70B515460E4604460CE02A46FE
:104B50003146204600F04EF80C34E4B2742C02D9F1
:104B600000240C36F6B2AD1C28780028EFD170BDB9
:104B70002DE9F04F203A98460D468346894602F0CB
:104B8000FF0A00262EE0B8F10C0F08D0174901EB00
:104B90000A100027845D200607D5099A08E0144909
:104BA0000AEB4A0001EB8000F3E7099890B100227C
:104BB00029465846FFF7AAFE6D1C6006EDB2040EAA
:104BC000A5EB0901414507D10BF101004D4600F06D
:104BD000FF0B05E00122EBE77F1CFFB2082FDAD3C1
:104BE000761CF6B24645CED3BDE8F08F9C10010886
:104BF000280C01082DE9F74F172514781E4B8B461A
:104C0000002000EB800101EBC00113F81160A64207
:104C10002DD103EB4109567899F80110B14226D104
:104C200000254FF0800A09EB0500009990F80280FA
:104C300005F0010000240BEB550701EBC0062AFA32
:104C400004F010EA080F06EB0400F9B2C0B201D07C
:104C5000012200E00022FFF759FE641CE4B2082C98
:104C6000EDD36D1CEDB2182DDDD3BDE8FE8F401CD9
:104C7000C0B2A842C5D3F8E73A2401082DE9F74F9E
:104C8000672514781D4B8B46002000EB001113F8AC
:104C90001160A6422DD103EB4109567899F8011015
:104CA000B14226D100254FF0800A09EB050000999A
:104CB00090F8028005F0010000240BEB550701EB92
:104CC000C0062AFA04F010EA080F06EB0400F9B255
:104CD000C0B201D0012200E00022FFF717FE641CE1
:104CE000E4B2082CEDD36D1CEDB2202DDDD3BDE870
:104CF000FE8F401CC0B2A842C7D3F8E78C1601084B
:104D00000149012048707047A40200202DE9FF4F9F
:104D100081B00027DDF838B01D46924680463C46FB
:104D20004FF001094FEA5B0627E0281B401EC1B285
:104D30000A2007F041FFBAFBF0F00A21B0FBF1F2C4
:104D400001FB120027B9691E8C4201DA48B1012724
:104D50003030C2B206FB0480C0B25B46CDF8009092
:104D600006E006FB0480C0B25B462022CDF800902E
:104D70000299FFF7FDFE641CE4B2AC42D5D305B046
:104D8000BDE8F08FF8B516460D460446012714E03D
:104D90007A2C02D900241035EDB23A2D03D9002423
:104DA0002546FFF77DFD009732780C2329462046E3
:104DB000FFF7DEFE0834E4B2761C30780028E7D135
:104DC000F8BDF8B516460D460446012714E07A2CC6
:104DD00002D900241035EDB23A2D03D9002425461E
:104DE000FFF75EFD00973278102329462046FFF733
:104DF000BFFE0834E4B2761C30780028E7D1F8BD55
:104E000030B50A4D00242868C11700EB1170B4EBCF
:104E1000201F01DA012200E0002200212046FFF7D6
:104E200093FD641CE4B2802CEDD330BD540200200D
:104E300030B500230E4A012411B1C2F8AC4201E0A2
:104E4000C2F8AC320021C2F8B832050602D5C2F869
:104E5000B44201E0C2F8B432C2F8B8424006491C7C
:104E6000000EC9B20829EED3C2F8AC4230BD000032
:104E7000008041420148FEF72FB90000685F002022
:104E80000020044A01461154401CC0B20928FAD33C
:104E9000704700005C0700202DE9F8430125074614
:104EA000ADF800501B4800264670ADF800501A4C73
:104EB00080464FF6FF7924E0BDF80000384202D06A
:104EC000C4F8B05201E0C4F8B062C4F8A0520520A2
:104ED00007F090FBC4F8A062052007F08BFBC4F834
:104EE000A052D4F83C0230B198F80110BDF800206F
:104EF000114388F80110BDF8001009EA4100ADF82F
:104F00000000BDF80000FF28D6D9BDE8F843102006
:104F100007F070BB5C0700200000424270B5FFF74D
:104F2000AFFF00F01BF9244D6C78412C03D0202CEE
:104F300001D0FF2C07D100F065F909221F491E4856
:104F4000FBF79AF96C70002108462A5C401C11445A
:104F5000C0B2C9B20928F8D318481C3879B1002169
:104F60000170296840F8251F69684160297A01723B
:104F7000B5F80310C94320F8211CC8B270BD0178F0
:104F8000491CC9B201700A290BD90B210170C169F2
:104F9000C0F82510016AC0F8291090F8241080F894
:104FA0002D10D0F825102960D0F82910696090F8EC
:104FB0002D102972D5E700005C0700206400002056
:104FC00010B5154C0020C4F8A802102004F52A746E
:104FD00007F010FB0120FFF75FFF4320FFF75CFFA6
:104FE0000020FFF759FF0120FFF756FF0020FFF7D1
:104FF00053FF0020FFF750FF0020FFF74DFF002078
:10500000FFF74AFF0020FFF747FF01202060BDE8BF
:105010001040102007F0EEBA0000424210B5154CC7
:105020000020C4F8A802102004F52A7407F0E2FA60
:105030000120FFF731FF4320FFF72EFF0020FFF78D
:105040002BFF0020FFF728FF5A20FFF725FF5A20EB
:10505000FFF722FF5A20FFF71FFF5A20FFF71CFF20
:105060005A20FFF719FF01202060BDE810401020F2
:1050700007F0C0BA000042427CB50121102000F0C8
:1050800007FB4FF40040002400908DF804400320FB
:105090008DF805000D4E02258DF807506946304603
:1050A000FDF76EFC01218DF804108DF806404FF4D9
:1050B000A8508DF8055000908DF8071069463046CD
:1050C000FDF75EFC00F004F87CBD0000001002401B
:1050D0000349042008700449024808607047000032
:1050E0004C010020500000205001002070B5FFF757
:1050F00015FF1848184CC1792170017AC1F1FF01E0
:1051000061704179A1708079E0700820FCF79EFE03
:10511000FF25002608B1257100E026710920FCF763
:1051200095FE08B1657100E066710A4D0A4E0024D3
:105130000C35083E05EB04112246B088FDF779FCDA
:10514000010002D02046FCF78BFE641CE4B20F2C59
:10515000F0D970BD5C070020500000202DE9FC4113
:1051600000268DF800600125ADF80450224CC4F8EB
:10517000A862224F3878FFF78FFE7878FFF78CFE11
:1051800002208DF800001E4F4FF6FF782CE0ADF89E
:1051900004501DE0C4F8A052052007F02BFAC4F813
:1051A000A062052007F026FAC4F8A052D4F83C0209
:1051B00040B19DF80000BDF80410385C08439DF82C
:1051C00000107854BDF8041008EA4100ADF804005E
:1051D000BDF80400FF28DDD9102007F00BFA9DF878
:1051E0000000401C8DF800009DF800000928CED377
:1051F000C4F8A852BDE8FC810000424249000020EA
:105200005C07002010B500F00DF800F00BF800F07E
:1052100009F8FFF7D5FE00F027F8BDE81040FFF7CA
:10522000FDBE000010B50F4C0020C4F8A8021020ED
:1052300004F52A7407F0DEF90120FFF72DFE422065
:10524000FFF72AFE0020FFF727FE0020FFF724FECD
:105250000020FFF721FE01202060BDE81040102053
:1052600007F0C8B90000424210B5144C0020C4F841
:10527000A802012004F52A74FFF70EFE4420FFF770
:105280000BFE0020FFF708FE0120FFF705FE0320BC
:10529000FFF702FE0020FFF7FFFD0020FFF7FCFDF7
:1052A0000020FFF7F9FD0020FFF7F6FD0120206048
:1052B000BDE81040102007F09DB9000000004242F8
:1052C00070B52DED068BDFED8AAA9FED8AAA8A4C78
:1052D000B0EE4A9A206841787F3900EE101A0178C2
:1052E000F8EEC08AC1F17F0100EE101A8178F8EE65
:1052F000C09AC1F17F0100EE101A8049B8EEC08A51
:10530000B0EEE80A10EE102A9FED7D0A8A4201DA1B
:10531000F0EE408AF0EEE90A10EE902A8A4201DAB5
:10532000F0EE409AF0EEC80A10EE902A8A4201DAB6
:10533000B0EE408A73490978052904D002291DD0AE
:1053400003291BD02FE0FDEEE80A10EE901A11BBE6
:105350000179407909B130B10DE060B100EE100A79
:10536000B8EE409A04E0484200EE100AB8EEC09A47
:10537000F0EE6A8A17E0B0EE409A14E0B0EEC80A88
:1053800010EE101A604A91420DDAC1680F2088476A
:1053900010B1B0EE6A8A06E02068C1680D20884727
:1053A00008B19FED5A8A88EEAA0A5948594A5A4BC1
:1053B000D0ED000A89EE0A1A20EE200A20EE011A2A
:1053C00089EEAA0A82ED001A60EE201A88EE2A0AF7
:1053D000C3ED001A9FED512A20EE020A9FED502ADC
:1053E00050495148C0EE822A20EE220A81ED000A7F
:1053F000007810B3012820D006281ED0022808D03B
:10540000032811D005280FD004280DD007280BD071
:1054100019E0F0EE000A20EE200AF2EE020A80EE19
:10542000202A81ED002A0EE0B5EEC01AF1EE10FA46
:1054300003D2B1EE400A81ED000A20EE200AC0EE50
:10544000020AC1ED000A9FED392A81EE020AC1EE7F
:10545000820A82ED000AC3ED000A91ED001AFCF702
:1054600075FD3348344D3549B0F9220000EE100A7D
:10547000F8EEC00A9FED2F0A80EE808A95ED110AA2
:1054800030EE480AB0EEC00A10EE100A884229DD5C
:105490002B484068B0F57A7F24DD206882680AB323
:1054A00010EE100A884201DA002019E010EE100A0E
:1054B0002449884201DD9FED240ADFED240A9FED97
:1054C000241A30EE600A60EE0A0A80EE810AF6EED7
:1054D000000A30EE200ABCEEC00A10EE100AC0B27C
:1054E0000021904785ED118ABDEC068B70BD000050
:1054F0000000FE4200007F43500100200000A04158
:10550000000000004C01002017B7D1380000FEC297
:10551000040200202C02002030020020DB0FC93FD3
:105520000000FA43340200200102002000007A4407
:10553000E05E0020E1FAD04458020020CDCCCC3D02
:105540001C5D00209A99993F9A99993FCDCCCC3D0A
:10555000CDCC8C3F014908627047000000000E422C
:1055600070B50024401E042804D229B1012903D0BB
:10557000022901D0012070BDC0B2EFF3108572B6D0
:105580000C4A12785AB10B4B5B1C51B11A5C42B1F8
:105590008A4206D0002100F059F8032406E00224D4
:1055A00004E01A5C8A4201D000F050F885F31088BC
:1055B000204670BD690100200121FFF7D1BF000026
:1055C0002DE9FC47EFF3108672B600251B4F012131
:1055D0000C203D7000F05CF800240021204600F013
:1055E00035F8641CE4B2042CF7D36846FDF718FACA
:1055F0004FF001088DF804808DF8065002208DF8D8
:105600000550DFF83C908DF80700002409EB0415E5
:105610006946A88800902868FDF7B2F9A88900902B
:105620006946A868FDF7ACF9641CE4B2042CEDD31C
:1056300087F8008086F31088BDE8FC8769010020A8
:10564000342801080021FFF78BBF000070B5064623
:105650000D480D4600EB0614A1882068FDF7DCF923
:10566000A189A068FDF7D8F9012D02D0022D03D041
:1056700006E0A188206801E0A189A068FDF7CEF9C5
:105680000248855570BD0000342801086A010020D9
:10569000044A0029116801D0014300E081431160F0
:1056A0007047000030380240044A0029116801D0D8
:1056B000014300E08143116070470000343802402C
:1056C000044A0029116801D0014300E081431160C0
:1056D0007047000040380240044A0029116801D098
:1056E000014300E0814311607047000044380240EC
:1056F000044A0029116801D0014300E08143116090
:10570000704700002438024070B5204B1968204CC7
:1057100011F00C0104D06610042903D0082903D02D
:1057200004601BE0066019E0184A121F1168C1F3FB
:105730008055116801F03F0115B1B6FBF1F101E0B0
:10574000B4FBF1F114681268C4F388146143C2F326
:105750000142521C5200B1FBF2F1016019680F22A4
:1057600002EA11110B4A545C0168E14041601C6877
:10577000072505EA9424145D21FA04F484601B686B
:1057800005EA5333D25CD140C16070BD0838024095
:105790000024F4007C010020054900220A700A70F0
:1057A000012802D0042801D10520087070470000AC
:1057B000703802400021022807D003280BD00428AB
:1057C0000BD005280BD0002070474FF08042506A64
:1057D000516200B27047044A02E0044A00E0044A01
:1057E0001068116000B27047240400402408004093
:1057F000240C0040014951F82000704700000608C1
:105800002DE9F0414FF4FA66634B77103246394682
:10581000186809F015FE614D18603246394628684F
:1058200009F00EFE5E4C286032463946206809F0C9
:1058300007FE32465B4E20603946306809F000FEB4
:1058400030602A6821681B686FF06304A2F2DC52A2
:10585000A0F2DC50A1F2DC51A3F2DC53A24202DD43
:10586000642A00DA0022A04202DD642800DA002067
:10587000A14202DD642900DA0021A34202DD642B8B
:1058800000DA002300EE101A474CB8EEC00AD4ED3F
:10589000000A30EE800ABDEEC00A10EE101A002990
:1058A00000DA00214FF4FA754A4392FBF5F24042C8
:1058B000484390FBF5F000EE102ADFED3E1A3B4C1A
:1058C000F8EEC00A00EE100A5842394DB8EEC01A80
:1058D00000EE100A394AC4ED000AB8EEC00A384892
:1058E00085ED001A20EE212ADFED331A82EE210A1F
:1058F00082ED000A007870B101280CD006280AD089
:1059000002280FD0032814D0052812D0042810D064
:1059100007280ED022E002EE101AB8EEC22A20EEBE
:10592000020A17E0F0EE001A20EE210AF2EE021A47
:1059300010E0F5EEC00AF1EE10FA03D2B1EE400A23
:1059400082ED000AB0EE402A00EE101AB8EEC00A4E
:1059500022EE000A80EE212A82ED002A9FED190A2C
:105960001949C0EE801AC1EE000AC4ED001AC5ED57
:10597000000A487938B19FED150A401E84ED000AEF
:1059800082ED000A487192ED001A94ED000ABDE81C
:10599000F041FCF7DBBA00009000002094000020EA
:1059A000980000209C000020040200202C0200200F
:1059B00030020020DB0FC93F0000FA433402002010
:1059C0000102002000007A4458020020000000007C
:1059D000104B10B5A3F120020024917A4C285854A2
:1059E00001D0002912D0491CC8B2907204280DD1F0
:1059F000947218784C2809D158784F2806D1987895
:105A0000472803D1D878332801D0547010BD012025
:105A1000507010BDE000002010B551EC100B2DEDC2
:105A2000068BB0EE439AF0EE629AB0EE42AAF0EE28
:105A3000618AB0EE418AFAF730FEBDEECA0A154916
:105A400010EE102ABDEEE90A086081ED018A10EE21
:105A5000103AC1ED058AC1E9022381ED049A99004B
:105A6000514300EE101A0C49B8EEC00A81ED000A4D
:105A70009FED0A0A0A4929EE000A81ED000A094948
:105A80000860094880ED008A0848C0ED008ABDEC36
:105A9000068B10BD385D002038020020DB0F494026
:105AA0003C02002040020020440200204802002066
:105AB00010B5384C40F205100A2120600920FDF78E
:105AC000E7F9216890FBF1F03349C0B2072808706C
:105AD00001D907200870C0B29FED300ADFED302AEF
